:060000000A128A110E280D
:10000800FE00030EF2000408F3000A08F4000A12C6
:100018008A11E0290A128A111128F80183120313A0
:10002800B801B901BA01BB01BC01BD01BE01BF01E4
:10003800C00183010A128A1121280A128A11372362
:100048000A128A110A128A1162230A128A110A12E2
:100058008A114A230A128A110A128A1121230A12C2
:100068008A110A128A1157230A128A11831203135A
:100078009F149F18402841285D281F0CB500350C97
:100088000F390D3A031D49284A284F281F08C3393C
:1000980030389F0053281F08C33934389F000F3069
:1000A80083120313B500B50B57285A28831203137C
:1000B8009F143330A4000030A5003D08B500B601F8
:1000C8003508A0003608A1006430A2000030A30063
:1000D8000A128A11FA220A128A11831203132108BA
:1000E800A7002008A6000A128A11BE200A128A1147
:1000F800831203132508B9002408B8003908AD0095
:100108003808AC004030B5003508AE003F30B600C6
:100118003608AF003E30B7003708B0000A128A111F
:1001280027210A128A11831203133E080A128A1120
:100138007F220A128A1183120313B5003508BA0008
:100148003F080A128A117F220A128A1183120313A6
:10015800B5003508BB0040080A128A117F220A122E
:100168008A1183120313B5003508BC003D280A1212
:100178008A110E2883120313A901A51FC428C528B4
:10018800CC28A409A509A40A0319A50AA901A90A42
:10019800A71FCF28D028D928A609A709A60A031976
:1001A800A70A0130F7007708A906AA01AB012408BD
:1001B80025040319E028E1281829A801A80AEF282E
:1001C80001300310A40DA50DFF3E031DE5280130E5
:1001D800F7007708A807A51FF228F328E4280130BC
:1001E8000310AA0DAB0DFF3E031DF42825082702B6
:1001F800031D002924082602031C032904290B29AE
:100208002408A6022508031CA703A7022A14013004
:100218000310A50CA40CFF3E031D0C290130A802F5
:10022800031D17291829F328290803191C291D2932
:100238002229AA09AB09AA0A0319AB0A2B08A500A7
:100248002A08A4000800643083120313A0000030B9
:10025800A1002D08A3002C08A2000A128A11392235
:100268000A128A11831203132008B1002E08840091
:100278003108831380006430A0000030A1002D08ED
:10028800A3002C08A2000A128A11BE220A128A119F
:10029800831203132008B1003108B4000A30A40007
:1002A8000030A5003408B100B2013108A6003208B8
:1002B800A7000A128A11BE200A128A118312031398
:1002C8002408B3002F0884003308831380000A3001
:1002D800A0000030A1003408B100B2013108A2002A
:1002E8003208A3000A128A1185210A128A11831280
:1002F80003132008B30030088400330883138000F8
:100308000800F70183120313A31F8B298C29932953
:10031800A209A309A20A0319A30AF701F70AA11F50
:10032800962997299C29A009A109A00A0319A10ABD
:10033800200821040319A129A229D129F601F60AC6
:10034800B02901300310A00DA10DFF3E031DA62901
:100358000130F5007508F607A11FB329B429A529AE
:1003680021082302031DBA2920082202031CBD29E3
:10037800BE29C4292008A2022108031CA303A30242
:1003880001300310A10CA00CFF3E031DC52901304C
:10039800F602031DD029D129B42977080319D529D4
:1003A800D629DB29A209A309A20A0319A30A23084B
:1003B800A1002208A0000800831203130C1FE529DE
:1003C800E629F8291F0CF000700C0F390C3A031DB0
:1003D800EE29EF29F4291E08F0007008BD00F6295F
:1003E8001E0885000C13302A0B1DFB29FC29302A16
:1003F8000B1188011D2AF801F80A013088003C0811
:10040800870083308100302A0230F0007008F8003D
:10041800023088003B08870083308100302AF801C9
:10042800043088003A08870083308100302AF801B8
:10043800182A7808F000F1017108003A0319252AF2
:100448001B2A7008003A0319FF29013A0319082AE0
:10045800033A0319132A1B2A74088A0073088400B4
:10046800720E8300FE0E7E0E090083120313A5018F
:10047800A601200821040319422A432A7A2AA40142
:10048800A40A512A01300310A00DA10DFF3E031D3F
:10049800472A0130F5007508A407A11F542A552AD8
:1004A800462A01300310A50DA60DFF3E031D562A4E
:1004B80021082302031D622A20082202031C652A40
:1004C800662A6D2A2008A2022108031CA303A3029E
:1004D800251401300310A10CA00CFF3E031D6E2A49
:1004E8000130A402031D792A7A2A552A2608A10078
:1004F8002508A0000800F700952A3F30BD2A0630DD
:10050800BD2A5B30BD2A4F30BD2A6630BD2A6D300A
:10051800BD2A7D30BD2A0730BD2A7F30BD2A6F3005
:10052800BD2A7708F500F6017608003A03199D2AD6
:10053800812A7508003A0319812A013A0319832A86
:10054800033A0319852A013A0319872A073A031936
:10055800892A013A03198B2A033A03198D2A013A89
:1005680003198F2A0F3A0319912A013A0319932A7A
:10057800812A080083120313200821040319C52ABD
:10058800C62AF52AF601F60AD42A01300310A00D6E
:10059800A10DFF3E031DCA2A0130F5007508F607B4
:1005A800A11FD72AD82AC92A21082302031DDE2A17
:1005B80020082202031CE12AE22AE82A2008A202D3
:1005C8002108031CA303A30201300310A10CA00CF3
:1005D800FF3E031DE92A0130F602031DF42AF52A1D
:1005E800D82A2308A1002208A0000800F501F60176
:1005F80083120313201C012B022B082B2208F5075A
:100608000318F60A2308F60701300310A20DA30DFC
:10061800FF3E031D092B01300310A10CA00CFF3E67
:10062800031D102B20082104031D1B2B1C2BFC2A47
:100638007608A1007508A0000800831603139F130D
:100648001F129F12831203131F083F3940389F005F
:100658001F08C33930389F001F141030F500F50B00
:10066800332B0000080083160317880130308900F7
:1006780083160313850121308600870188018312C0
:100688000313850186018701880108008316031377
:100698008112011281110111811401148330831216
:1006A8000313810008008B170B17831603130C170D
:1006B800831203130C138B160B11080083160313F4
:0A06C8000F178F160F120F14080011
:04400E00D420FF3F7C
:00000001FF
